{
  "contractName": "CropAdvisor",
  "abi": [
    {
      "inputs": [],
      "stateMutability": "nonpayable",
      "type": "constructor"
    },
    {
      "anonymous": false,
      "inputs": [
        {
          "indexed": true,
          "internalType": "uint256",
          "name": "analysisId",
          "type": "uint256"
        },
        {
          "indexed": false,
          "internalType": "string",
          "name": "diagnosis",
          "type": "string"
        },
        {
          "indexed": false,
          "internalType": "string",
          "name": "advice",
          "type": "string"
        }
      ],
      "name": "AnalysisCompleted",
      "type": "event"
    },
    {
      "anonymous": false,
      "inputs": [
        {
          "indexed": true,
          "internalType": "address",
          "name": "farmer",
          "type": "address"
        },
        {
          "indexed": true,
          "internalType": "uint256",
          "name": "analysisId",
          "type": "uint256"
        },
        {
          "indexed": false,
          "internalType": "uint256",
          "name": "amount",
          "type": "uint256"
        }
      ],
      "name": "PaymentReceived",
      "type": "event"
    },
    {
      "anonymous": false,
      "inputs": [
        {
          "indexed": false,
          "internalType": "uint256",
          "name": "newPrice",
          "type": "uint256"
        }
      ],
      "name": "PriceUpdated",
      "type": "event"
    },
    {
      "inputs": [
        {
          "internalType": "uint256",
          "name": "",
          "type": "uint256"
        }
      ],
      "name": "analyses",
      "outputs": [
        {
          "internalType": "address",
          "name": "farmer",
          "type": "address"
        },
        {
          "internalType": "string",
          "name": "imageHash",
          "type": "string"
        },
        {
          "internalType": "string",
          "name": "diagnosis",
          "type": "string"
        },
        {
          "internalType": "string",
          "name": "advice",
          "type": "string"
        },
        {
          "internalType": "uint256",
          "name": "timestamp",
          "type": "uint256"
        },
        {
          "internalType": "bool",
          "name": "completed",
          "type": "bool"
        }
      ],
      "stateMutability": "view",
      "type": "function"
    },
    {
      "inputs": [],
      "name": "analysisCounter",
      "outputs": [
        {
          "internalType": "uint256",
          "name": "",
          "type": "uint256"
        }
      ],
      "stateMutability": "view",
      "type": "function"
    },
    {
      "inputs": [],
      "name": "analysisPrice",
      "outputs": [
        {
          "internalType": "uint256",
          "name": "",
          "type": "uint256"
        }
      ],
      "stateMutability": "view",
      "type": "function"
    },
    {
      "inputs": [
        {
          "internalType": "address",
          "name": "",
          "type": "address"
        },
        {
          "internalType": "uint256",
          "name": "",
          "type": "uint256"
        }
      ],
      "name": "farmerAnalyses",
      "outputs": [
        {
          "internalType": "uint256",
          "name": "",
          "type": "uint256"
        }
      ],
      "stateMutability": "view",
      "type": "function"
    },
    {
      "inputs": [],
      "name": "owner",
      "outputs": [
        {
          "internalType": "address",
          "name": "",
          "type": "address"
        }
      ],
      "stateMutability": "view",
      "type": "function"
    },
    {
      "inputs": [
        {
          "internalType": "string",
          "name": "_imageHash",
          "type": "string"
        }
      ],
      "name": "requestAnalysis",
      "outputs": [
        {
          "internalType": "uint256",
          "name": "",
          "type": "uint256"
        }
      ],
      "stateMutability": "payable",
      "type": "function"
    },
    {
      "inputs": [
        {
          "internalType": "uint256",
          "name": "_analysisId",
          "type": "uint256"
        },
        {
          "internalType": "string",
          "name": "_diagnosis",
          "type": "string"
        },
        {
          "internalType": "string",
          "name": "_advice",
          "type": "string"
        }
      ],
      "name": "completeAnalysis",
      "outputs": [],
      "stateMutability": "nonpayable",
      "type": "function"
    },
    {
      "inputs": [
        {
          "internalType": "uint256",
          "name": "_analysisId",
          "type": "uint256"
        }
      ],
      "name": "getAnalysis",
      "outputs": [
        {
          "components": [
            {
              "internalType": "address",
              "name": "farmer",
              "type": "address"
            },
            {
              "internalType": "string",
              "name": "imageHash",
              "type": "string"
            },
            {
              "internalType": "string",
              "name": "diagnosis",
              "type": "string"
            },
            {
              "internalType": "string",
              "name": "advice",
              "type": "string"
            },
            {
              "internalType": "uint256",
              "name": "timestamp",
              "type": "uint256"
            },
            {
              "internalType": "bool",
              "name": "completed",
              "type": "bool"
            }
          ],
          "internalType": "struct CropAdvisor.Analysis",
          "name": "",
          "type": "tuple"
        }
      ],
      "stateMutability": "view",
      "type": "function"
    },
    {
      "inputs": [
        {
          "internalType": "address",
          "name": "_farmer",
          "type": "address"
        }
      ],
      "name": "getFarmerAnalyses",
      "outputs": [
        {
          "internalType": "uint256[]",
          "name": "",
          "type": "uint256[]"
        }
      ],
      "stateMutability": "view",
      "type": "function"
    },
    {
      "inputs": [
        {
          "internalType": "uint256",
          "name": "_newPrice",
          "type": "uint256"
        }
      ],
      "name": "updatePrice",
      "outputs": [],
      "stateMutability": "nonpayable",
      "type": "function"
    },
    {
      "inputs": [],
      "name": "withdraw",
      "outputs": [],
      "stateMutability": "nonpayable",
      "type": "function"
    },
    {
      "inputs": [],
      "name": "getContractBalance",
      "outputs": [
        {
          "internalType": "uint256",
          "name": "",
          "type": "uint256"
        }
      ],
      "stateMutability": "view",
      "type": "function"
    }
  ],
  "bytecode": "0x608060405266038d7ea4c6800060015534801561001b57600080fd5b50600080546001600160a01b031916331790556111308061003d6000396000f3fe6080604052600436106100a75760003560e01c80638d6cc56d116100645780638d6cc56d146101705780638da5cb5b14610190578063af56cc72146101c8578063c8a166a3146101fa578063e1ebcd611461021a578063f7dd6d5b1461023057600080fd5b80633ccfd60b146100ac5780635170b934146100c3578063586b0855146100f95780636626f32a1461011a5780636bcded7b146101475780636f9fb98a1461015d575b600080fd5b3480156100b857600080fd5b506100c1610250565b005b3480156100cf57600080fd5b506100e36100de366004610bb6565b610305565b6040516100f09190610c15565b60405180910390f35b61010c610107366004610d45565b610596565b6040519081526020016100f0565b34801561012657600080fd5b5061013a610135366004610d9e565b61076c565b6040516100f09190610dc0565b34801561015357600080fd5b5061010c60015481565b34801561016957600080fd5b504761010c565b34801561017c57600080fd5b506100c161018b366004610bb6565b6107d8565b34801561019c57600080fd5b506000546101b0906001600160a01b031681565b6040516001600160a01b0390911681526020016100f0565b3480156101d457600080fd5b506101e86101e3366004610bb6565b61083d565b6040516100f096959493929190610e04565b34801561020657600080fd5b5061010c610215366004610e69565b610a18565b34801561022657600080fd5b5061010c60045481565b34801561023c57600080fd5b506100c161024b366004610e93565b610a49565b6000546001600160a01b031633146102835760405162461bcd60e51b815260040161027a90610f00565b60405180910390fd5b47806102c85760405162461bcd60e51b81526020600482015260146024820152734e6f2066756e647320746f20776974686472617760601b604482015260640161027a565b600080546040516001600160a01b039091169183156108fc02918491818181858888f19350505050158015610301573d6000803e3d6000fd5b5050565b6103496040518060c0016040528060006001600160a01b03168152602001606081526020016060815260200160608152602001600081526020016000151581525090565b60045482106103945760405162461bcd60e51b8152602060048201526017602482015276105b985b1e5cda5cc8191bd95cc81b9bdd08195e1a5cdd604a1b604482015260640161027a565b600082815260026020908152604091829020825160c0810190935280546001600160a01b0316835260018101805491928401916103d090610f41565b80601f01602080910402602001604051908101604052809291908181526020018280546103fc90610f41565b80156104495780601f1061041e57610100808354040283529160200191610449565b820191906000526020600020905b81548152906001019060200180831161042c57829003601f168201915b5050505050815260200160028201805461046290610f41565b80601f016020809104026020016040519081016040528092919081815260200182805461048e90610f41565b80156104db5780601f106104b0576101008083540402835291602001916104db565b820191906000526020600020905b8154815290600101906020018083116104be57829003601f168201915b505050505081526020016003820180546104f490610f41565b80601f016020809104026020016040519081016040528092919081815260200182805461052090610f41565b801561056d5780601f106105425761010080835404028352916020019161056d565b820191906000526020600020905b81548152906001019060200180831161055057829003601f168201915b50505091835250506004820154602082015260059091015460ff16151560409091015292915050565b60006001543410156105e15760405162461bcd60e51b8152602060048201526014602482015273125b9cdd59999a58da595b9d081c185e5b595b9d60621b604482015260640161027a565b60048054600091826105f283610f91565b909155506040805160c08101825233815260208082018781528351808301855260008082528486019190915284518084018652818152606085015242608085015260a084018190528581526002909252929020815181546001600160a01b0319166001600160a01b0390911617815591519293509160018201906106769082610ff9565b506040820151600282019061068b9082610ff9565b50606082015160038201906106a09082610ff9565b506080820151600482015560a0909101516005909101805460ff191691151591909117905533600081815260036020908152604080832080546001810182559084529282902090920184905590513481528392917f5677b5d4cf976ac32defbd95a6a5aaf0d1fee450a11fc26f3c11aae6e6c33d06910160405180910390a36001543411156107665760015433906108fc9061073c90346110b9565b6040518115909202916000818181858888f19350505050158015610764573d6000803e3d6000fd5b505b92915050565b6001600160a01b0381166000908152600360209081526040918290208054835181840281018401909452808452606093928301828280156107cc57602002820191906000526020600020905b8154815260200190600101908083116107b8575b50505050509050919050565b6000546001600160a01b031633146108025760405162461bcd60e51b815260040161027a90610f00565b60018190556040518181527f66cbca4f3c64fecf1dcb9ce094abcf7f68c3450a1d4e3a8e917dd621edb4ebe09060200160405180910390a150565b600260205260009081526040902080546001820180546001600160a01b03909216929161086990610f41565b80601f016020809104026020016040519081016040528092919081815260200182805461089590610f41565b80156108e25780601f106108b7576101008083540402835291602001916108e2565b820191906000526020600020905b8154815290600101906020018083116108c557829003601f168201915b5050505050908060020180546108f790610f41565b80601f016020809104026020016040519081016040528092919081815260200182805461092390610f41565b80156109705780601f1061094557610100808354040283529160200191610970565b820191906000526020600020905b81548152906001019060200180831161095357829003601f168201915b50505050509080600301805461098590610f41565b80601f01602080910402602001604051908101604052809291908181526020018280546109b190610f41565b80156109fe5780601f106109d3576101008083540402835291602001916109fe565b820191906000526020600020905b8154815290600101906020018083116109e157829003601f168201915b50505050600483015460059093015491929160ff16905086565b60036020528160005260406000208181548110610a3457600080fd5b90600052602060002001600091509150505481565b6000546001600160a01b03163314610a735760405162461bcd60e51b815260040161027a90610f00565b6004548310610abe5760405162461bcd60e51b8152602060048201526017602482015276105b985b1e5cda5cc8191bd95cc81b9bdd08195e1a5cdd604a1b604482015260640161027a565b60008381526002602052604090206005015460ff1615610b205760405162461bcd60e51b815260206004820152601a60248201527f416e616c7973697320616c726561647920636f6d706c65746564000000000000604482015260640161027a565b600083815260026020819052604090912001610b3c8382610ff9565b506000838152600260205260409020600301610b588282610ff9565b5060008381526002602052604090819020600501805460ff191660011790555183907f88caaba9460a220114d0ae49d513b0c49e3bcc57e8ee290ee5e5c49b59eda35a90610ba990859085906110cc565b60405180910390a2505050565b600060208284031215610bc857600080fd5b5035919050565b6000815180845260005b81811015610bf557602081850181015186830182015201610bd9565b506000602082860101526020601f19601f83011685010191505092915050565b602080825282516001600160a01b03168282015282015160c06040830152600090610c4360e0840182610bcf565b90506040840151601f1980858403016060860152610c618383610bcf565b9250606086015191508085840301608086015250610c7f8282610bcf565b915050608084015160a084015260a0840151151560c08401528091505092915050565b634e487b7160e01b600052604160045260246000fd5b600082601f830112610cc957600080fd5b813567ffffffffffffffff80821115610ce457610ce4610ca2565b604051601f8301601f19908116603f01168101908282118183101715610d0c57610d0c610ca2565b81604052838152866020858801011115610d2557600080fd5b836020870160208301376000602085830101528094505050505092915050565b600060208284031215610d5757600080fd5b813567ffffffffffffffff811115610d6e57600080fd5b610d7a84828501610cb8565b949350505050565b80356001600160a01b0381168114610d9957600080fd5b919050565b600060208284031215610db057600080fd5b610db982610d82565b9392505050565b6020808252825182820181905260009190848201906040850190845b81811015610df857835183529284019291840191600101610ddc565b50909695505050505050565b6001600160a01b038716815260c060208201819052600090610e2890830188610bcf565b8281036040840152610e3a8188610bcf565b90508281036060840152610e4e8187610bcf565b6080840195909552505090151560a090910152949350505050565b60008060408385031215610e7c57600080fd5b610e8583610d82565b946020939093013593505050565b600080600060608486031215610ea857600080fd5b83359250602084013567ffffffffffffffff80821115610ec757600080fd5b610ed387838801610cb8565b93506040860135915080821115610ee957600080fd5b50610ef686828701610cb8565b9150509250925092565b60208082526021908201527f4f6e6c79206f776e65722063616e2063616c6c20746869732066756e6374696f6040820152603760f91b606082015260800190565b600181811c90821680610f5557607f821691505b602082108103610f7557634e487b7160e01b600052602260045260246000fd5b50919050565b634e487b7160e01b600052601160045260246000fd5b600060018201610fa357610fa3610f7b565b5060010190565b601f821115610ff457600081815260208120601f850160051c81016020861015610fd15750805b601f850160051c820191505b81811015610ff057828155600101610fdd565b5050505b505050565b815167ffffffffffffffff81111561101357611013610ca2565b611027816110218454610f41565b84610faa565b602080601f83116001811461105c57600084156110445750858301515b600019600386901b1c1916600185901b178555610ff0565b600085815260208120601f198616915b8281101561108b5788860151825594840194600190910190840161106c565b50858210156110a95787850151600019600388901b60f8161c191681555b5050505050600190811b01905550565b8181038181111561076657610766610f7b565b6040815260006110df6040830185610bcf565b82810360208401526110f18185610bcf565b9594505050505056fea26469706673582212201e0b4edd42b27f681ad566057f642508da7d96caee440790d9a96b575e4123a664736f6c63430008130033",
  "immutableReferences": {},
  "source": "// SPDX-License-Identifier: MIT\npragma solidity ^0.8.19;\n\ncontract CropAdvisor {\n    address public owner;\n    uint256 public analysisPrice = 0.001 ether; // ~$2.50 at current ETH prices\n    \n    struct Analysis {\n        address farmer;\n        string imageHash;\n        string diagnosis;\n        string advice;\n        uint256 timestamp;\n        bool completed;\n    }\n    \n    mapping(uint256 => Analysis) public analyses;\n    mapping(address => uint256[]) public farmerAnalyses;\n    uint256 public analysisCounter;\n    \n    event PaymentReceived(address indexed farmer, uint256 indexed analysisId, uint256 amount);\n    event AnalysisCompleted(uint256 indexed analysisId, string diagnosis, string advice);\n    event PriceUpdated(uint256 newPrice);\n    \n    modifier onlyOwner() {\n        require(msg.sender == owner, \"Only owner can call this function\");\n        _;\n    }\n    \n    constructor() {\n        owner = msg.sender;\n    }\n    \n    function requestAnalysis(string memory _imageHash) external payable returns (uint256) {\n        require(msg.value >= analysisPrice, \"Insufficient payment\");\n        \n        uint256 analysisId = analysisCounter++;\n        \n        analyses[analysisId] = Analysis({\n            farmer: msg.sender,\n            imageHash: _imageHash,\n            diagnosis: \"\",\n            advice: \"\",\n            timestamp: block.timestamp,\n            completed: false\n        });\n        \n        farmerAnalyses[msg.sender].push(analysisId);\n        \n        emit PaymentReceived(msg.sender, analysisId, msg.value);\n        \n        // Refund excess payment\n        if (msg.value > analysisPrice) {\n            payable(msg.sender).transfer(msg.value - analysisPrice);\n        }\n        \n        return analysisId;\n    }\n    \n    function completeAnalysis(\n        uint256 _analysisId,\n        string memory _diagnosis,\n        string memory _advice\n    ) external onlyOwner {\n        require(_analysisId < analysisCounter, \"Analysis does not exist\");\n        require(!analyses[_analysisId].completed, \"Analysis already completed\");\n        \n        analyses[_analysisId].diagnosis = _diagnosis;\n        analyses[_analysisId].advice = _advice;\n        analyses[_analysisId].completed = true;\n        \n        emit AnalysisCompleted(_analysisId, _diagnosis, _advice);\n    }\n    \n    function getAnalysis(uint256 _analysisId) external view returns (Analysis memory) {\n        require(_analysisId < analysisCounter, \"Analysis does not exist\");\n        return analyses[_analysisId];\n    }\n    \n    function getFarmerAnalyses(address _farmer) external view returns (uint256[] memory) {\n        return farmerAnalyses[_farmer];\n    }\n    \n    function updatePrice(uint256 _newPrice) external onlyOwner {\n        analysisPrice = _newPrice;\n        emit PriceUpdated(_newPrice);\n    }\n    \n    function withdraw() external onlyOwner {\n        uint256 balance = address(this).balance;\n        require(balance > 0, \"No funds to withdraw\");\n        payable(owner).transfer(balance);\n    }\n    \n    function getContractBalance() external view returns (uint256) {\n        return address(this).balance;\n    }\n}",
  "sourcePath": "C:\\Users\\toshr\\OneDrive\\Desktop\\GreenChainAdvisory-main_V1(before deploy)\\GreenChainAdvisory-main\\contracts\\CropAdvisor.sol",
  "compiler": {
    "name": "solc",
    "version": "0.8.19+commit.7dd6d404.Emscripten.clang"
  },
  "schemaVersion": "3.4.16",
  "updatedAt": "2025-09-13T14:30:01.340Z",
  "devdoc": {
    "kind": "dev",
    "methods": {},
    "version": 1
  },
  "userdoc": {
    "kind": "user",
    "methods": {},
    "version": 1
  }
}