{
  "contractName": "CropAdvisor",
  "abi": [
    {
      "inputs": [],
      "stateMutability": "nonpayable",
      "type": "constructor"
    },
    {
      "inputs": [
        {
          "internalType": "address",
          "name": "owner",
          "type": "address"
        }
      ],
      "name": "OwnableInvalidOwner",
      "type": "error"
    },
    {
      "inputs": [
        {
          "internalType": "address",
          "name": "account",
          "type": "address"
        }
      ],
      "name": "OwnableUnauthorizedAccount",
      "type": "error"
    },
    {
      "inputs": [],
      "name": "ReentrancyGuardReentrantCall",
      "type": "error"
    },
    {
      "anonymous": false,
      "inputs": [
        {
          "indexed": true,
          "internalType": "uint256",
          "name": "analysisId",
          "type": "uint256"
        },
        {
          "indexed": false,
          "internalType": "string",
          "name": "diagnosis",
          "type": "string"
        },
        {
          "indexed": false,
          "internalType": "string",
          "name": "advice",
          "type": "string"
        }
      ],
      "name": "AnalysisCompleted",
      "type": "event"
    },
    {
      "anonymous": false,
      "inputs": [
        {
          "indexed": true,
          "internalType": "address",
          "name": "previousOwner",
          "type": "address"
        },
        {
          "indexed": true,
          "internalType": "address",
          "name": "newOwner",
          "type": "address"
        }
      ],
      "name": "OwnershipTransferred",
      "type": "event"
    },
    {
      "anonymous": false,
      "inputs": [
        {
          "indexed": true,
          "internalType": "address",
          "name": "farmer",
          "type": "address"
        },
        {
          "indexed": true,
          "internalType": "uint256",
          "name": "analysisId",
          "type": "uint256"
        },
        {
          "indexed": false,
          "internalType": "uint256",
          "name": "amount",
          "type": "uint256"
        }
      ],
      "name": "PaymentReceived",
      "type": "event"
    },
    {
      "anonymous": false,
      "inputs": [
        {
          "indexed": false,
          "internalType": "address",
          "name": "token",
          "type": "address"
        }
      ],
      "name": "PaymentTokenUpdated",
      "type": "event"
    },
    {
      "anonymous": false,
      "inputs": [
        {
          "indexed": false,
          "internalType": "uint256",
          "name": "newPriceETH",
          "type": "uint256"
        }
      ],
      "name": "PriceUpdatedETH",
      "type": "event"
    },
    {
      "anonymous": false,
      "inputs": [
        {
          "indexed": false,
          "internalType": "uint256",
          "name": "newPriceToken",
          "type": "uint256"
        }
      ],
      "name": "PriceUpdatedToken",
      "type": "event"
    },
    {
      "inputs": [
        {
          "internalType": "uint256",
          "name": "",
          "type": "uint256"
        }
      ],
      "name": "analyses",
      "outputs": [
        {
          "internalType": "address",
          "name": "farmer",
          "type": "address"
        },
        {
          "internalType": "string",
          "name": "imageHash",
          "type": "string"
        },
        {
          "internalType": "string",
          "name": "diagnosis",
          "type": "string"
        },
        {
          "internalType": "string",
          "name": "advice",
          "type": "string"
        },
        {
          "internalType": "uint256",
          "name": "timestamp",
          "type": "uint256"
        },
        {
          "internalType": "bool",
          "name": "completed",
          "type": "bool"
        }
      ],
      "stateMutability": "view",
      "type": "function"
    },
    {
      "inputs": [],
      "name": "analysisCounter",
      "outputs": [
        {
          "internalType": "uint256",
          "name": "",
          "type": "uint256"
        }
      ],
      "stateMutability": "view",
      "type": "function"
    },
    {
      "inputs": [],
      "name": "analysisPriceETH",
      "outputs": [
        {
          "internalType": "uint256",
          "name": "",
          "type": "uint256"
        }
      ],
      "stateMutability": "view",
      "type": "function"
    },
    {
      "inputs": [],
      "name": "analysisPriceToken",
      "outputs": [
        {
          "internalType": "uint256",
          "name": "",
          "type": "uint256"
        }
      ],
      "stateMutability": "view",
      "type": "function"
    },
    {
      "inputs": [
        {
          "internalType": "address",
          "name": "",
          "type": "address"
        },
        {
          "internalType": "uint256",
          "name": "",
          "type": "uint256"
        }
      ],
      "name": "farmerAnalyses",
      "outputs": [
        {
          "internalType": "uint256",
          "name": "",
          "type": "uint256"
        }
      ],
      "stateMutability": "view",
      "type": "function"
    },
    {
      "inputs": [],
      "name": "owner",
      "outputs": [
        {
          "internalType": "address",
          "name": "",
          "type": "address"
        }
      ],
      "stateMutability": "view",
      "type": "function"
    },
    {
      "inputs": [],
      "name": "paymentToken",
      "outputs": [
        {
          "internalType": "contract IERC20",
          "name": "",
          "type": "address"
        }
      ],
      "stateMutability": "view",
      "type": "function"
    },
    {
      "inputs": [],
      "name": "renounceOwnership",
      "outputs": [],
      "stateMutability": "nonpayable",
      "type": "function"
    },
    {
      "inputs": [
        {
          "internalType": "address",
          "name": "newOwner",
          "type": "address"
        }
      ],
      "name": "transferOwnership",
      "outputs": [],
      "stateMutability": "nonpayable",
      "type": "function"
    },
    {
      "inputs": [
        {
          "internalType": "string",
          "name": "_imageHash",
          "type": "string"
        }
      ],
      "name": "requestAnalysis",
      "outputs": [
        {
          "internalType": "uint256",
          "name": "",
          "type": "uint256"
        }
      ],
      "stateMutability": "payable",
      "type": "function"
    },
    {
      "inputs": [
        {
          "internalType": "string",
          "name": "_imageHash",
          "type": "string"
        }
      ],
      "name": "requestAnalysisToken",
      "outputs": [
        {
          "internalType": "uint256",
          "name": "",
          "type": "uint256"
        }
      ],
      "stateMutability": "nonpayable",
      "type": "function"
    },
    {
      "inputs": [
        {
          "internalType": "uint256",
          "name": "_analysisId",
          "type": "uint256"
        },
        {
          "internalType": "string",
          "name": "_diagnosis",
          "type": "string"
        },
        {
          "internalType": "string",
          "name": "_advice",
          "type": "string"
        }
      ],
      "name": "completeAnalysis",
      "outputs": [],
      "stateMutability": "nonpayable",
      "type": "function"
    },
    {
      "inputs": [
        {
          "internalType": "uint256",
          "name": "_analysisId",
          "type": "uint256"
        }
      ],
      "name": "getAnalysis",
      "outputs": [
        {
          "components": [
            {
              "internalType": "address",
              "name": "farmer",
              "type": "address"
            },
            {
              "internalType": "string",
              "name": "imageHash",
              "type": "string"
            },
            {
              "internalType": "string",
              "name": "diagnosis",
              "type": "string"
            },
            {
              "internalType": "string",
              "name": "advice",
              "type": "string"
            },
            {
              "internalType": "uint256",
              "name": "timestamp",
              "type": "uint256"
            },
            {
              "internalType": "bool",
              "name": "completed",
              "type": "bool"
            }
          ],
          "internalType": "struct CropAdvisor.Analysis",
          "name": "",
          "type": "tuple"
        }
      ],
      "stateMutability": "view",
      "type": "function"
    },
    {
      "inputs": [
        {
          "internalType": "address",
          "name": "_farmer",
          "type": "address"
        }
      ],
      "name": "getFarmerAnalyses",
      "outputs": [
        {
          "internalType": "uint256[]",
          "name": "",
          "type": "uint256[]"
        }
      ],
      "stateMutability": "view",
      "type": "function"
    },
    {
      "inputs": [
        {
          "internalType": "address",
          "name": "_token",
          "type": "address"
        }
      ],
      "name": "setPaymentToken",
      "outputs": [],
      "stateMutability": "nonpayable",
      "type": "function"
    },
    {
      "inputs": [
        {
          "internalType": "uint256",
          "name": "_newPrice",
          "type": "uint256"
        }
      ],
      "name": "setAnalysisPriceETH",
      "outputs": [],
      "stateMutability": "nonpayable",
      "type": "function"
    },
    {
      "inputs": [
        {
          "internalType": "uint256",
          "name": "_newPrice",
          "type": "uint256"
        }
      ],
      "name": "setAnalysisPriceToken",
      "outputs": [],
      "stateMutability": "nonpayable",
      "type": "function"
    },
    {
      "inputs": [
        {
          "internalType": "address payable",
          "name": "_to",
          "type": "address"
        }
      ],
      "name": "withdrawETH",
      "outputs": [],
      "stateMutability": "nonpayable",
      "type": "function"
    },
    {
      "inputs": [
        {
          "internalType": "address",
          "name": "_to",
          "type": "address"
        }
      ],
      "name": "withdrawToken",
      "outputs": [],
      "stateMutability": "nonpayable",
      "type": "function"
    },
    {
      "inputs": [],
      "name": "getContractBalance",
      "outputs": [
        {
          "internalType": "uint256",
          "name": "",
          "type": "uint256"
        }
      ],
      "stateMutability": "view",
      "type": "function"
    }
  ],
  "bytecode": "0x60806040526509184e72a000600255348015610019575f80fd5b50338061003f57604051631e4fbdf760e01b81525f600482015260240160405180910390fd5b61004881610052565b50600180556100a1565b5f80546001600160a01b038381166001600160a01b0319831681178455604051919092169283917f8be0079c531659141344cd1fd0a4f28419497f9722a3daafe3b4186f6b6457e09190a35050565b6117a5806100ae5f395ff3fe60806040526004361061011b575f3560e01c8063715018a61161009d578063af56cc7211610062578063af56cc72146102fc578063c8a166a31461032d578063e1ebcd611461034c578063f2fde38b14610361578063f7dd6d5b14610380575f80fd5b8063715018a614610283578063865987171461029757806389476069146102ac5780638da5cb5b146102cb5780639ac30000146102e7575f80fd5b8063586b0855116100e3578063586b0855146101f45780636626f32a14610207578063690d8320146102335780636a326ab1146102525780636f9fb98a14610271575f80fd5b8063125ae7e11461011f5780633013ce29146101405780633a7bebc71461017c5780633ae1dd09146101a95780635170b934146101c8575b5f80fd5b34801561012a575f80fd5b5061013e610139366004611259565b61039f565b005b34801561014b575f80fd5b5060035461015f906001600160a01b031681565b6040516001600160a01b0390911681526020015b60405180910390f35b348015610187575f80fd5b5061019b61019636600461130d565b6103e3565b604051908152602001610173565b3480156101b4575f80fd5b5061013e6101c3366004611259565b6105a2565b3480156101d3575f80fd5b506101e76101e2366004611259565b6105df565b604051610173919061138a565b61019b61020236600461130d565b610866565b348015610212575f80fd5b5061022661022136600461142a565b6109af565b604051610173919061144c565b34801561023e575f80fd5b5061013e61024d36600461142a565b610a18565b34801561025d575f80fd5b5061013e61026c36600461142a565b610afe565b34801561027c575f80fd5b504761019b565b34801561028e575f80fd5b5061013e610b54565b3480156102a2575f80fd5b5061019b60025481565b3480156102b7575f80fd5b5061013e6102c636600461142a565b610b67565b3480156102d6575f80fd5b505f546001600160a01b031661015f565b3480156102f2575f80fd5b5061019b60045481565b348015610307575f80fd5b5061031b610316366004611259565b610d28565b6040516101739695949392919061148f565b348015610338575f80fd5b5061019b6103473660046114f3565b610efc565b348015610357575f80fd5b5061019b60075481565b34801561036c575f80fd5b5061013e61037b36600461142a565b610f27565b34801561038b575f80fd5b5061013e61039a36600461151d565b610f61565b6103a76110a8565b60028190556040518181527f3e6bacf0b3f8c959dc8a6c87baa282be7ef440c2e5caa0ed7a59878be526ef9c906020015b60405180910390a150565b5f6103ec6110d4565b6003546001600160a01b03166104395760405162461bcd60e51b815260206004820152600d60248201526c151bdad95b881b9bdd081cd95d609a1b60448201526064015b60405180910390fd5b5f600454116104805760405162461bcd60e51b8152602060048201526013602482015272151bdad95b881c1c9a58d9481b9bdd081cd95d606a1b6044820152606401610430565b600354600480546040516323b872dd60e01b8152339281019290925230602483015260448201526001600160a01b03909116906323b872dd906064016020604051808303815f875af11580156104d8573d5f803e3d5ffd5b505050506040513d601f19601f820116820180604052508101906104fc9190611585565b6105405760405162461bcd60e51b8152602060048201526015602482015274151bdad95b881d1c985b9cd9995c8819985a5b1959605a1b6044820152606401610430565b5f61054a836110fe565b905080336001600160a01b03167f5677b5d4cf976ac32defbd95a6a5aaf0d1fee450a11fc26f3c11aae6e6c33d0660045460405161058a91815260200190565b60405180910390a3905061059d60018055565b919050565b6105aa6110a8565b60048190556040518181527f9294988cf14e86d62f578c65c40e01f3fa6cee4610f623487cc13093966efcfc906020016103d8565b6106206040518060c001604052805f6001600160a01b031681526020016060815260200160608152602001606081526020015f81526020015f151581525090565b600754821061066b5760405162461bcd60e51b8152602060048201526017602482015276105b985b1e5cda5cc8191bd95cc81b9bdd08195e1a5cdd604a1b6044820152606401610430565b5f82815260056020908152604091829020825160c0810190935280546001600160a01b0316835260018101805491928401916106a6906115a4565b80601f01602080910402602001604051908101604052809291908181526020018280546106d2906115a4565b801561071d5780601f106106f45761010080835404028352916020019161071d565b820191905f5260205f20905b81548152906001019060200180831161070057829003601f168201915b50505050508152602001600282018054610736906115a4565b80601f0160208091040260200160405190810160405280929190818152602001828054610762906115a4565b80156107ad5780601f10610784576101008083540402835291602001916107ad565b820191905f5260205f20905b81548152906001019060200180831161079057829003601f168201915b505050505081526020016003820180546107c6906115a4565b80601f01602080910402602001604051908101604052809291908181526020018280546107f2906115a4565b801561083d5780601f106108145761010080835404028352916020019161083d565b820191905f5260205f20905b81548152906001019060200180831161082057829003601f168201915b50505091835250506004820154602082015260059091015460ff16151560409091015292915050565b5f61086f6110d4565b6002543410156108b85760405162461bcd60e51b8152602060048201526014602482015273125b9cdd59999a58da595b9d081c185e5b595b9d60621b6044820152606401610430565b5f6108c2836110fe565b905080336001600160a01b03167f5677b5d4cf976ac32defbd95a6a5aaf0d1fee450a11fc26f3c11aae6e6c33d063460405161090091815260200190565b60405180910390a36002543411156109a4576002545f90339061092390346115f0565b6040515f81818185875af1925050503d805f811461095c576040519150601f19603f3d011682016040523d82523d5f602084013e610961565b606091505b50509050806109a25760405162461bcd60e51b815260206004820152600d60248201526c1499599d5b990819985a5b1959609a1b6044820152606401610430565b505b905061059d60018055565b6001600160a01b0381165f90815260066020908152604091829020805483518184028101840190945280845260609392830182828015610a0c57602002820191905f5260205f20905b8154815260200190600101908083116109f8575b50505050509050919050565b610a206110a8565b610a286110d4565b4780610a5f5760405162461bcd60e51b815260206004820152600660248201526509cde408aa8960d31b6044820152606401610430565b5f826001600160a01b0316826040515f6040518083038185875af1925050503d805f8114610aa8576040519150601f19603f3d011682016040523d82523d5f602084013e610aad565b606091505b5050905080610af05760405162461bcd60e51b815260206004820152600f60248201526e15da5d1a191c985dc819985a5b1959608a1b6044820152606401610430565b5050610afb60018055565b50565b610b066110a8565b600380546001600160a01b0319166001600160a01b0383169081179091556040519081527fbd4032c1c91da2791730ea1bbc82c6b6f857da7c0a8318143d19ef74e62cd913906020016103d8565b610b5c6110a8565b610b655f61120a565b565b610b6f6110a8565b610b776110d4565b6003546001600160a01b0316610bbf5760405162461bcd60e51b815260206004820152600d60248201526c151bdad95b881b9bdd081cd95d609a1b6044820152606401610430565b6003546040516370a0823160e01b81523060048201525f916001600160a01b0316906370a0823190602401602060405180830381865afa158015610c05573d5f803e3d5ffd5b505050506040513d601f19601f82011682018060405250810190610c299190611609565b90505f8111610c665760405162461bcd60e51b81526020600482015260096024820152684e6f20746f6b656e7360b81b6044820152606401610430565b60035460405163a9059cbb60e01b81526001600160a01b038481166004830152602482018490529091169063a9059cbb906044016020604051808303815f875af1158015610cb6573d5f803e3d5ffd5b505050506040513d601f19601f82011682018060405250810190610cda9190611585565b610d1e5760405162461bcd60e51b8152602060048201526015602482015274151bdad95b881dda5d1a191c985dc819985a5b1959605a1b6044820152606401610430565b50610afb60018055565b60056020525f9081526040902080546001820180546001600160a01b039092169291610d53906115a4565b80601f0160208091040260200160405190810160405280929190818152602001828054610d7f906115a4565b8015610dca5780601f10610da157610100808354040283529160200191610dca565b820191905f5260205f20905b815481529060010190602001808311610dad57829003601f168201915b505050505090806002018054610ddf906115a4565b80601f0160208091040260200160405190810160405280929190818152602001828054610e0b906115a4565b8015610e565780601f10610e2d57610100808354040283529160200191610e56565b820191905f5260205f20905b815481529060010190602001808311610e3957829003601f168201915b505050505090806003018054610e6b906115a4565b80601f0160208091040260200160405190810160405280929190818152602001828054610e97906115a4565b8015610ee25780601f10610eb957610100808354040283529160200191610ee2565b820191905f5260205f20905b815481529060010190602001808311610ec557829003601f168201915b50505050600483015460059093015491929160ff16905086565b6006602052815f5260405f208181548110610f15575f80fd5b905f5260205f20015f91509150505481565b610f2f6110a8565b6001600160a01b038116610f5857604051631e4fbdf760e01b81525f6004820152602401610430565b610afb8161120a565b610f696110a8565b6007548310610fb45760405162461bcd60e51b8152602060048201526017602482015276105b985b1e5cda5cc8191bd95cc81b9bdd08195e1a5cdd604a1b6044820152606401610430565b5f838152600560208190526040909120015460ff16156110165760405162461bcd60e51b815260206004820152601a60248201527f416e616c7973697320616c726561647920636f6d706c657465640000000000006044820152606401610430565b5f838152600560205260409020600201611030838261166e565b505f83815260056020526040902060030161104b828261166e565b505f8381526005602081905260409182902001805460ff191660011790555183907f88caaba9460a220114d0ae49d513b0c49e3bcc57e8ee290ee5e5c49b59eda35a9061109b908590859061172a565b60405180910390a2505050565b5f546001600160a01b03163314610b655760405163118cdaa760e01b8152336004820152602401610430565b6002600154036110f757604051633ee5aeb560e01b815260040160405180910390fd5b6002600155565b600780545f918291908261111183611757565b909155506040805160c0810182523381526020808201878152835180830185525f8082528486019190915284518084018652818152606085015242608085015260a084018190528581526005909252929020815181546001600160a01b0319166001600160a01b039091161781559151929350916001820190611194908261166e565b50604082015160028201906111a9908261166e565b50606082015160038201906111be908261166e565b506080820151600482015560a0909101516005909101805460ff1916911515919091179055335f9081526006602090815260408220805460018101825590835291200181905592915050565b5f80546001600160a01b038381166001600160a01b0319831681178455604051919092169283917f8be0079c531659141344cd1fd0a4f28419497f9722a3daafe3b4186f6b6457e09190a35050565b5f60208284031215611269575f80fd5b5035919050565b634e487b7160e01b5f52604160045260245ffd5b5f82601f830112611293575f80fd5b813567ffffffffffffffff808211156112ae576112ae611270565b604051601f8301601f19908116603f011681019082821181831017156112d6576112d6611270565b816040528381528660208588010111156112ee575f80fd5b836020870160208301375f602085830101528094505050505092915050565b5f6020828403121561131d575f80fd5b813567ffffffffffffffff811115611333575f80fd5b61133f84828501611284565b949350505050565b5f81518084525f5b8181101561136b5760208185018101518683018201520161134f565b505f602082860101526020601f19601f83011685010191505092915050565b602080825282516001600160a01b03168282015282015160c060408301525f906113b760e0840182611347565b90506040840151601f19808584030160608601526113d58383611347565b92506060860151915080858403016080860152506113f38282611347565b915050608084015160a084015260a0840151151560c08401528091505092915050565b6001600160a01b0381168114610afb575f80fd5b5f6020828403121561143a575f80fd5b813561144581611416565b9392505050565b602080825282518282018190525f9190848201906040850190845b8181101561148357835183529284019291840191600101611467565b50909695505050505050565b6001600160a01b038716815260c0602082018190525f906114b290830188611347565b82810360408401526114c48188611347565b905082810360608401526114d88187611347565b6080840195909552505090151560a090910152949350505050565b5f8060408385031215611504575f80fd5b823561150f81611416565b946020939093013593505050565b5f805f6060848603121561152f575f80fd5b83359250602084013567ffffffffffffffff8082111561154d575f80fd5b61155987838801611284565b9350604086013591508082111561156e575f80fd5b5061157b86828701611284565b9150509250925092565b5f60208284031215611595575f80fd5b81518015158114611445575f80fd5b600181811c908216806115b857607f821691505b6020821081036115d657634e487b7160e01b5f52602260045260245ffd5b50919050565b634e487b7160e01b5f52601160045260245ffd5b81810381811115611603576116036115dc565b92915050565b5f60208284031215611619575f80fd5b5051919050565b601f821115611669575f81815260208120601f850160051c810160208610156116465750805b601f850160051c820191505b8181101561166557828155600101611652565b5050505b505050565b815167ffffffffffffffff81111561168857611688611270565b61169c8161169684546115a4565b84611620565b602080601f8311600181146116cf575f84156116b85750858301515b5f19600386901b1c1916600185901b178555611665565b5f85815260208120601f198616915b828110156116fd578886015182559484019460019091019084016116de565b508582101561171a57878501515f19600388901b60f8161c191681555b5050505050600190811b01905550565b604081525f61173c6040830185611347565b828103602084015261174e8185611347565b95945050505050565b5f60018201611768576117686115dc565b506001019056fea2646970667358221220c46e2fcd6a9016c4b132fe0d7c73dd71d893386337afefd8e7163c832292b59464736f6c63430008140033",
  "immutableReferences": {},
  "source": "// SPDX-License-Identifier: MIT\npragma solidity ^0.8.20;\n\nimport {IERC20} from \"@openzeppelin/contracts/token/ERC20/IERC20.sol\";\nimport {Ownable} from \"@openzeppelin/contracts/access/Ownable.sol\";\nimport {ReentrancyGuard} from \"@openzeppelin/contracts/utils/ReentrancyGuard.sol\";\n\ncontract CropAdvisor is Ownable, ReentrancyGuard {\n    // Pricing and assets\n    uint256 public analysisPriceETH = 0.00001 ether;\n    IERC20 public paymentToken; // YellowUSD (test) on Sepolia when set\n    uint256 public analysisPriceToken; // price in ERC20 smallest unit\n\n    struct Analysis {\n        address farmer;\n        string imageHash;\n        string diagnosis;\n        string advice;\n        uint256 timestamp;\n        bool completed;\n    }\n\n    mapping(uint256 => Analysis) public analyses;\n    mapping(address => uint256[]) public farmerAnalyses;\n    uint256 public analysisCounter;\n\n    event PaymentReceived(address indexed farmer, uint256 indexed analysisId, uint256 amount);\n    event AnalysisCompleted(uint256 indexed analysisId, string diagnosis, string advice);\n    event PriceUpdatedETH(uint256 newPriceETH);\n    event PriceUpdatedToken(uint256 newPriceToken);\n    event PaymentTokenUpdated(address token);\n\n    constructor() Ownable(msg.sender) {}\n\n    // ETH flow (kept for backward compatibility)\n    function requestAnalysis(string memory _imageHash) external payable nonReentrant returns (uint256) {\n        require(msg.value >= analysisPriceETH, \"Insufficient payment\");\n\n        uint256 analysisId = _createAnalysis(_imageHash);\n        emit PaymentReceived(msg.sender, analysisId, msg.value);\n\n        // refund excess\n        if (msg.value > analysisPriceETH) {\n            (bool ok, ) = payable(msg.sender).call{value: msg.value - analysisPriceETH}(\"\");\n            require(ok, \"Refund failed\");\n        }\n        return analysisId;\n    }\n\n    // ERC20 YellowUSD flow\n    function requestAnalysisToken(string memory _imageHash) external nonReentrant returns (uint256) {\n        require(address(paymentToken) != address(0), \"Token not set\");\n        require(analysisPriceToken > 0, \"Token price not set\");\n\n        // Pull funds from user (requires prior approve)\n        require(paymentToken.transferFrom(msg.sender, address(this), analysisPriceToken), \"Token transfer failed\");\n\n        uint256 analysisId = _createAnalysis(_imageHash);\n        emit PaymentReceived(msg.sender, analysisId, analysisPriceToken);\n        return analysisId;\n    }\n\n    function _createAnalysis(string memory _imageHash) internal returns (uint256) {\n        uint256 analysisId = analysisCounter++;\n        analyses[analysisId] = Analysis({\n            farmer: msg.sender,\n            imageHash: _imageHash,\n            diagnosis: \"\",\n            advice: \"\",\n            timestamp: block.timestamp,\n            completed: false\n        });\n        farmerAnalyses[msg.sender].push(analysisId);\n        return analysisId;\n    }\n\n    // Owner finalizes analysis details (server/relayer)\n    function completeAnalysis(\n        uint256 _analysisId,\n        string memory _diagnosis,\n        string memory _advice\n    ) external onlyOwner {\n        require(_analysisId < analysisCounter, \"Analysis does not exist\");\n        require(!analyses[_analysisId].completed, \"Analysis already completed\");\n        analyses[_analysisId].diagnosis = _diagnosis;\n        analyses[_analysisId].advice = _advice;\n        analyses[_analysisId].completed = true;\n        emit AnalysisCompleted(_analysisId, _diagnosis, _advice);\n    }\n\n    // Views\n    function getAnalysis(uint256 _analysisId) external view returns (Analysis memory) {\n        require(_analysisId < analysisCounter, \"Analysis does not exist\");\n        return analyses[_analysisId];\n    }\n\n    function getFarmerAnalyses(address _farmer) external view returns (uint256[] memory) {\n        return farmerAnalyses[_farmer];\n    }\n\n    // Admin config\n    function setPaymentToken(address _token) external onlyOwner {\n        paymentToken = IERC20(_token);\n        emit PaymentTokenUpdated(_token);\n    }\n\n    function setAnalysisPriceETH(uint256 _newPrice) external onlyOwner {\n        analysisPriceETH = _newPrice;\n        emit PriceUpdatedETH(_newPrice);\n    }\n\n    function setAnalysisPriceToken(uint256 _newPrice) external onlyOwner {\n        analysisPriceToken = _newPrice;\n        emit PriceUpdatedToken(_newPrice);\n    }\n\n    // Withdrawals\n    function withdrawETH(address payable _to) external onlyOwner nonReentrant {\n        uint256 balance = address(this).balance;\n        require(balance > 0, \"No ETH\");\n        (bool ok, ) = _to.call{value: balance}(\"\");\n        require(ok, \"Withdraw failed\");\n    }\n\n    function withdrawToken(address _to) external onlyOwner nonReentrant {\n        require(address(paymentToken) != address(0), \"Token not set\");\n        uint256 bal = paymentToken.balanceOf(address(this));\n        require(bal > 0, \"No tokens\");\n        require(paymentToken.transfer(_to, bal), \"Token withdraw failed\");\n    }\n\n    function getContractBalance() external view returns (uint256) {\n        return address(this).balance;\n    }\n}",
  "sourcePath": "C:\\Users\\toshr\\OneDrive\\Desktop\\GreenChainAdvisory-main_V1(before deploy)\\GreenChainAdvisory-main\\contracts\\CropAdvisor.sol",
  "compiler": {
    "name": "solc",
    "version": "0.8.20+commit.a1b79de6.Emscripten.clang"
  },
  "schemaVersion": "3.4.16",
  "updatedAt": "2025-09-23T19:17:09.333Z",
  "devdoc": {
    "errors": {
      "OwnableInvalidOwner(address)": [
        {
          "details": "The owner is not a valid owner account. (eg. `address(0)`)"
        }
      ],
      "OwnableUnauthorizedAccount(address)": [
        {
          "details": "The caller account is not authorized to perform an operation."
        }
      ],
      "ReentrancyGuardReentrantCall()": [
        {
          "details": "Unauthorized reentrant call."
        }
      ]
    },
    "kind": "dev",
    "methods": {
      "owner()": {
        "details": "Returns the address of the current owner."
      },
      "renounceOwnership()": {
        "details": "Leaves the contract without owner. It will not be possible to call `onlyOwner` functions. Can only be called by the current owner. NOTE: Renouncing ownership will leave the contract without an owner, thereby disabling any functionality that is only available to the owner."
      },
      "transferOwnership(address)": {
        "details": "Transfers ownership of the contract to a new account (`newOwner`). Can only be called by the current owner."
      }
    },
    "version": 1
  },
  "userdoc": {
    "kind": "user",
    "methods": {},
    "version": 1
  }
}