{
  "contractName": "CropAdvisor",
  "abi": [
    {
      "inputs": [],
      "stateMutability": "nonpayable",
      "type": "constructor"
    },
    {
      "anonymous": false,
      "inputs": [
        {
          "indexed": true,
          "internalType": "uint256",
          "name": "analysisId",
          "type": "uint256"
        },
        {
          "indexed": false,
          "internalType": "string",
          "name": "diagnosis",
          "type": "string"
        },
        {
          "indexed": false,
          "internalType": "string",
          "name": "advice",
          "type": "string"
        }
      ],
      "name": "AnalysisCompleted",
      "type": "event"
    },
    {
      "anonymous": false,
      "inputs": [
        {
          "indexed": true,
          "internalType": "address",
          "name": "farmer",
          "type": "address"
        },
        {
          "indexed": true,
          "internalType": "uint256",
          "name": "analysisId",
          "type": "uint256"
        },
        {
          "indexed": false,
          "internalType": "uint256",
          "name": "amount",
          "type": "uint256"
        }
      ],
      "name": "PaymentReceived",
      "type": "event"
    },
    {
      "anonymous": false,
      "inputs": [
        {
          "indexed": false,
          "internalType": "uint256",
          "name": "newPrice",
          "type": "uint256"
        }
      ],
      "name": "PriceUpdated",
      "type": "event"
    },
    {
      "inputs": [
        {
          "internalType": "uint256",
          "name": "",
          "type": "uint256"
        }
      ],
      "name": "analyses",
      "outputs": [
        {
          "internalType": "address",
          "name": "farmer",
          "type": "address"
        },
        {
          "internalType": "string",
          "name": "imageHash",
          "type": "string"
        },
        {
          "internalType": "string",
          "name": "diagnosis",
          "type": "string"
        },
        {
          "internalType": "string",
          "name": "advice",
          "type": "string"
        },
        {
          "internalType": "uint256",
          "name": "timestamp",
          "type": "uint256"
        },
        {
          "internalType": "bool",
          "name": "completed",
          "type": "bool"
        }
      ],
      "stateMutability": "view",
      "type": "function"
    },
    {
      "inputs": [],
      "name": "analysisCounter",
      "outputs": [
        {
          "internalType": "uint256",
          "name": "",
          "type": "uint256"
        }
      ],
      "stateMutability": "view",
      "type": "function"
    },
    {
      "inputs": [],
      "name": "analysisPrice",
      "outputs": [
        {
          "internalType": "uint256",
          "name": "",
          "type": "uint256"
        }
      ],
      "stateMutability": "view",
      "type": "function"
    },
    {
      "inputs": [
        {
          "internalType": "address",
          "name": "",
          "type": "address"
        },
        {
          "internalType": "uint256",
          "name": "",
          "type": "uint256"
        }
      ],
      "name": "farmerAnalyses",
      "outputs": [
        {
          "internalType": "uint256",
          "name": "",
          "type": "uint256"
        }
      ],
      "stateMutability": "view",
      "type": "function"
    },
    {
      "inputs": [],
      "name": "owner",
      "outputs": [
        {
          "internalType": "address",
          "name": "",
          "type": "address"
        }
      ],
      "stateMutability": "view",
      "type": "function"
    },
    {
      "inputs": [
        {
          "internalType": "string",
          "name": "_imageHash",
          "type": "string"
        }
      ],
      "name": "requestAnalysis",
      "outputs": [
        {
          "internalType": "uint256",
          "name": "",
          "type": "uint256"
        }
      ],
      "stateMutability": "payable",
      "type": "function"
    },
    {
      "inputs": [
        {
          "internalType": "uint256",
          "name": "_analysisId",
          "type": "uint256"
        },
        {
          "internalType": "string",
          "name": "_diagnosis",
          "type": "string"
        },
        {
          "internalType": "string",
          "name": "_advice",
          "type": "string"
        }
      ],
      "name": "completeAnalysis",
      "outputs": [],
      "stateMutability": "nonpayable",
      "type": "function"
    },
    {
      "inputs": [
        {
          "internalType": "uint256",
          "name": "_analysisId",
          "type": "uint256"
        }
      ],
      "name": "getAnalysis",
      "outputs": [
        {
          "components": [
            {
              "internalType": "address",
              "name": "farmer",
              "type": "address"
            },
            {
              "internalType": "string",
              "name": "imageHash",
              "type": "string"
            },
            {
              "internalType": "string",
              "name": "diagnosis",
              "type": "string"
            },
            {
              "internalType": "string",
              "name": "advice",
              "type": "string"
            },
            {
              "internalType": "uint256",
              "name": "timestamp",
              "type": "uint256"
            },
            {
              "internalType": "bool",
              "name": "completed",
              "type": "bool"
            }
          ],
          "internalType": "struct CropAdvisor.Analysis",
          "name": "",
          "type": "tuple"
        }
      ],
      "stateMutability": "view",
      "type": "function"
    },
    {
      "inputs": [
        {
          "internalType": "address",
          "name": "_farmer",
          "type": "address"
        }
      ],
      "name": "getFarmerAnalyses",
      "outputs": [
        {
          "internalType": "uint256[]",
          "name": "",
          "type": "uint256[]"
        }
      ],
      "stateMutability": "view",
      "type": "function"
    },
    {
      "inputs": [
        {
          "internalType": "uint256",
          "name": "_newPrice",
          "type": "uint256"
        }
      ],
      "name": "updatePrice",
      "outputs": [],
      "stateMutability": "nonpayable",
      "type": "function"
    },
    {
      "inputs": [],
      "name": "withdraw",
      "outputs": [],
      "stateMutability": "nonpayable",
      "type": "function"
    },
    {
      "inputs": [],
      "name": "getContractBalance",
      "outputs": [
        {
          "internalType": "uint256",
          "name": "",
          "type": "uint256"
        }
      ],
      "stateMutability": "view",
      "type": "function"
    }
  ],
  "bytecode": "0x60806040526509184e72a000600155348015610019575f80fd5b505f80546001600160a01b031916331790556110d0806100385f395ff3fe6080604052600436106100a5575f3560e01c80638d6cc56d116100625780638d6cc56d146101685780638da5cb5b14610187578063af56cc72146101bd578063c8a166a3146101ee578063e1ebcd611461020d578063f7dd6d5b14610222575f80fd5b80633ccfd60b146100a95780635170b934146100bf578063586b0855146100f45780636626f32a146101155780636bcded7b146101415780636f9fb98a14610156575b5f80fd5b3480156100b4575f80fd5b506100bd610241565b005b3480156100ca575f80fd5b506100de6100d9366004610b7c565b6102f2565b6040516100eb9190610bd6565b60405180910390f35b610107610102366004610cff565b610579565b6040519081526020016100eb565b348015610120575f80fd5b5061013461012f366004610d54565b610748565b6040516100eb9190610d74565b34801561014c575f80fd5b5061010760015481565b348015610161575f80fd5b5047610107565b348015610173575f80fd5b506100bd610182366004610b7c565b6107b1565b348015610192575f80fd5b505f546101a5906001600160a01b031681565b6040516001600160a01b0390911681526020016100eb565b3480156101c8575f80fd5b506101dc6101d7366004610b7c565b610815565b6040516100eb96959493929190610db7565b3480156101f9575f80fd5b50610107610208366004610e1b565b6109e9565b348015610218575f80fd5b5061010760045481565b34801561022d575f80fd5b506100bd61023c366004610e43565b610a14565b5f546001600160a01b031633146102735760405162461bcd60e51b815260040161026a90610eab565b60405180910390fd5b47806102b85760405162461bcd60e51b81526020600482015260146024820152734e6f2066756e647320746f20776974686472617760601b604482015260640161026a565b5f80546040516001600160a01b039091169183156108fc02918491818181858888f193505050501580156102ee573d5f803e3d5ffd5b5050565b6103336040518060c001604052805f6001600160a01b031681526020016060815260200160608152602001606081526020015f81526020015f151581525090565b600454821061037e5760405162461bcd60e51b8152602060048201526017602482015276105b985b1e5cda5cc8191bd95cc81b9bdd08195e1a5cdd604a1b604482015260640161026a565b5f82815260026020908152604091829020825160c0810190935280546001600160a01b0316835260018101805491928401916103b990610eec565b80601f01602080910402602001604051908101604052809291908181526020018280546103e590610eec565b80156104305780601f1061040757610100808354040283529160200191610430565b820191905f5260205f20905b81548152906001019060200180831161041357829003601f168201915b5050505050815260200160028201805461044990610eec565b80601f016020809104026020016040519081016040528092919081815260200182805461047590610eec565b80156104c05780601f10610497576101008083540402835291602001916104c0565b820191905f5260205f20905b8154815290600101906020018083116104a357829003601f168201915b505050505081526020016003820180546104d990610eec565b80601f016020809104026020016040519081016040528092919081815260200182805461050590610eec565b80156105505780601f1061052757610100808354040283529160200191610550565b820191905f5260205f20905b81548152906001019060200180831161053357829003601f168201915b50505091835250506004820154602082015260059091015460ff16151560409091015292915050565b5f6001543410156105c35760405162461bcd60e51b8152602060048201526014602482015273125b9cdd59999a58da595b9d081c185e5b595b9d60621b604482015260640161026a565b600480545f91826105d383610f38565b909155506040805160c0810182523381526020808201878152835180830185525f8082528486019190915284518084018652818152606085015242608085015260a084018190528581526002909252929020815181546001600160a01b0319166001600160a01b0390911617815591519293509160018201906106569082610f9e565b506040820151600282019061066b9082610f9e565b50606082015160038201906106809082610f9e565b506080820151600482015560a0909101516005909101805460ff1916911515919091179055335f81815260036020908152604080832080546001810182559084529282902090920184905590513481528392917f5677b5d4cf976ac32defbd95a6a5aaf0d1fee450a11fc26f3c11aae6e6c33d06910160405180910390a36001543411156107425760015433906108fc9061071b903461105a565b6040518115909202915f818181858888f19350505050158015610740573d5f803e3d5ffd5b505b92915050565b6001600160a01b0381165f908152600360209081526040918290208054835181840281018401909452808452606093928301828280156107a557602002820191905f5260205f20905b815481526020019060010190808311610791575b50505050509050919050565b5f546001600160a01b031633146107da5760405162461bcd60e51b815260040161026a90610eab565b60018190556040518181527f66cbca4f3c64fecf1dcb9ce094abcf7f68c3450a1d4e3a8e917dd621edb4ebe09060200160405180910390a150565b60026020525f9081526040902080546001820180546001600160a01b03909216929161084090610eec565b80601f016020809104026020016040519081016040528092919081815260200182805461086c90610eec565b80156108b75780601f1061088e576101008083540402835291602001916108b7565b820191905f5260205f20905b81548152906001019060200180831161089a57829003601f168201915b5050505050908060020180546108cc90610eec565b80601f01602080910402602001604051908101604052809291908181526020018280546108f890610eec565b80156109435780601f1061091a57610100808354040283529160200191610943565b820191905f5260205f20905b81548152906001019060200180831161092657829003601f168201915b50505050509080600301805461095890610eec565b80601f016020809104026020016040519081016040528092919081815260200182805461098490610eec565b80156109cf5780601f106109a6576101008083540402835291602001916109cf565b820191905f5260205f20905b8154815290600101906020018083116109b257829003601f168201915b50505050600483015460059093015491929160ff16905086565b6003602052815f5260405f208181548110610a02575f80fd5b905f5260205f20015f91509150505481565b5f546001600160a01b03163314610a3d5760405162461bcd60e51b815260040161026a90610eab565b6004548310610a885760405162461bcd60e51b8152602060048201526017602482015276105b985b1e5cda5cc8191bd95cc81b9bdd08195e1a5cdd604a1b604482015260640161026a565b5f8381526002602052604090206005015460ff1615610ae95760405162461bcd60e51b815260206004820152601a60248201527f416e616c7973697320616c726561647920636f6d706c65746564000000000000604482015260640161026a565b5f83815260026020819052604090912001610b048382610f9e565b505f838152600260205260409020600301610b1f8282610f9e565b505f8381526002602052604090819020600501805460ff191660011790555183907f88caaba9460a220114d0ae49d513b0c49e3bcc57e8ee290ee5e5c49b59eda35a90610b6f908590859061106d565b60405180910390a2505050565b5f60208284031215610b8c575f80fd5b5035919050565b5f81518084525f5b81811015610bb757602081850181015186830182015201610b9b565b505f602082860101526020601f19601f83011685010191505092915050565b602080825282516001600160a01b03168282015282015160c060408301525f90610c0360e0840182610b93565b90506040840151601f1980858403016060860152610c218383610b93565b9250606086015191508085840301608086015250610c3f8282610b93565b915050608084015160a084015260a0840151151560c08401528091505092915050565b634e487b7160e01b5f52604160045260245ffd5b5f82601f830112610c85575f80fd5b813567ffffffffffffffff80821115610ca057610ca0610c62565b604051601f8301601f19908116603f01168101908282118183101715610cc857610cc8610c62565b81604052838152866020858801011115610ce0575f80fd5b836020870160208301375f602085830101528094505050505092915050565b5f60208284031215610d0f575f80fd5b813567ffffffffffffffff811115610d25575f80fd5b610d3184828501610c76565b949350505050565b80356001600160a01b0381168114610d4f575f80fd5b919050565b5f60208284031215610d64575f80fd5b610d6d82610d39565b9392505050565b602080825282518282018190525f9190848201906040850190845b81811015610dab57835183529284019291840191600101610d8f565b50909695505050505050565b6001600160a01b038716815260c0602082018190525f90610dda90830188610b93565b8281036040840152610dec8188610b93565b90508281036060840152610e008187610b93565b6080840195909552505090151560a090910152949350505050565b5f8060408385031215610e2c575f80fd5b610e3583610d39565b946020939093013593505050565b5f805f60608486031215610e55575f80fd5b83359250602084013567ffffffffffffffff80821115610e73575f80fd5b610e7f87838801610c76565b93506040860135915080821115610e94575f80fd5b50610ea186828701610c76565b9150509250925092565b60208082526021908201527f4f6e6c79206f776e65722063616e2063616c6c20746869732066756e6374696f6040820152603760f91b606082015260800190565b600181811c90821680610f0057607f821691505b602082108103610f1e57634e487b7160e01b5f52602260045260245ffd5b50919050565b634e487b7160e01b5f52601160045260245ffd5b5f60018201610f4957610f49610f24565b5060010190565b601f821115610f99575f81815260208120601f850160051c81016020861015610f765750805b601f850160051c820191505b81811015610f9557828155600101610f82565b5050505b505050565b815167ffffffffffffffff811115610fb857610fb8610c62565b610fcc81610fc68454610eec565b84610f50565b602080601f831160018114610fff575f8415610fe85750858301515b5f19600386901b1c1916600185901b178555610f95565b5f85815260208120601f198616915b8281101561102d5788860151825594840194600190910190840161100e565b508582101561104a57878501515f19600388901b60f8161c191681555b5050505050600190811b01905550565b8181038181111561074257610742610f24565b604081525f61107f6040830185610b93565b82810360208401526110918185610b93565b9594505050505056fea2646970667358221220040017f119ed0670bc1bf1666e121165fb0f91d6e6bea04196e2b1cea734b16964736f6c63430008140033",
  "immutableReferences": {},
  "source": "// SPDX-License-Identifier: MIT\npragma solidity ^0.8.19;\n\ncontract CropAdvisor {\n    address public owner;\n    uint256 public analysisPrice = 0.00001 ether; //\n    \n    struct Analysis {\n        address farmer;\n        string imageHash;\n        string diagnosis;\n        string advice;\n        uint256 timestamp;\n        bool completed;\n    }\n    \n    mapping(uint256 => Analysis) public analyses;\n    mapping(address => uint256[]) public farmerAnalyses;\n    uint256 public analysisCounter;\n    \n    event PaymentReceived(address indexed farmer, uint256 indexed analysisId, uint256 amount);\n    event AnalysisCompleted(uint256 indexed analysisId, string diagnosis, string advice);\n    event PriceUpdated(uint256 newPrice);\n    \n    modifier onlyOwner() {\n        require(msg.sender == owner, \"Only owner can call this function\");\n        _;\n    }\n    \n    constructor() {\n        owner = msg.sender;\n    }\n    \n    function requestAnalysis(string memory _imageHash) external payable returns (uint256) {\n        require(msg.value >= analysisPrice, \"Insufficient payment\");\n        \n        uint256 analysisId = analysisCounter++;\n        \n        analyses[analysisId] = Analysis({\n            farmer: msg.sender,\n            imageHash: _imageHash,\n            diagnosis: \"\",\n            advice: \"\",\n            timestamp: block.timestamp,\n            completed: false\n        });\n        \n        farmerAnalyses[msg.sender].push(analysisId);\n        \n        emit PaymentReceived(msg.sender, analysisId, msg.value);\n        \n        // Refund excess payment\n        if (msg.value > analysisPrice) {\n            payable(msg.sender).transfer(msg.value - analysisPrice);\n        }\n        \n        return analysisId;\n    }\n    \n    function completeAnalysis(\n        uint256 _analysisId,\n        string memory _diagnosis,\n        string memory _advice\n    ) external onlyOwner {\n        require(_analysisId < analysisCounter, \"Analysis does not exist\");\n        require(!analyses[_analysisId].completed, \"Analysis already completed\");\n        \n        analyses[_analysisId].diagnosis = _diagnosis;\n        analyses[_analysisId].advice = _advice;\n        analyses[_analysisId].completed = true;\n        \n        emit AnalysisCompleted(_analysisId, _diagnosis, _advice);\n    }\n    \n    function getAnalysis(uint256 _analysisId) external view returns (Analysis memory) {\n        require(_analysisId < analysisCounter, \"Analysis does not exist\");\n        return analyses[_analysisId];\n    }\n    \n    function getFarmerAnalyses(address _farmer) external view returns (uint256[] memory) {\n        return farmerAnalyses[_farmer];\n    }\n    \n    function updatePrice(uint256 _newPrice) external onlyOwner {\n        analysisPrice = _newPrice;\n        emit PriceUpdated(_newPrice);\n    }\n    \n    function withdraw() external onlyOwner {\n        uint256 balance = address(this).balance;\n        require(balance > 0, \"No funds to withdraw\");\n        payable(owner).transfer(balance);\n    }\n    \n    function getContractBalance() external view returns (uint256) {\n        return address(this).balance;\n    }\n}",
  "sourcePath": "C:\\Users\\toshr\\OneDrive\\Desktop\\GreenChainAdvisory-main_V1(before deploy)\\GreenChainAdvisory-main\\contracts\\CropAdvisor.sol",
  "compiler": {
    "name": "solc",
    "version": "0.8.20+commit.a1b79de6.Emscripten.clang"
  },
  "schemaVersion": "3.4.16",
  "updatedAt": "2025-09-21T04:27:52.440Z",
  "devdoc": {
    "kind": "dev",
    "methods": {},
    "version": 1
  },
  "userdoc": {
    "kind": "user",
    "methods": {},
    "version": 1
  }
}