{
  "contractName": "Marketplace",
  "abi": [
    {
      "anonymous": false,
      "inputs": [
        {
          "indexed": true,
          "internalType": "uint256",
          "name": "id",
          "type": "uint256"
        },
        {
          "indexed": true,
          "internalType": "address",
          "name": "seller",
          "type": "address"
        },
        {
          "indexed": false,
          "internalType": "uint256",
          "name": "price",
          "type": "uint256"
        }
      ],
      "name": "ListingCreated",
      "type": "event"
    },
    {
      "anonymous": false,
      "inputs": [
        {
          "indexed": true,
          "internalType": "uint256",
          "name": "id",
          "type": "uint256"
        }
      ],
      "name": "ListingMarkedSold",
      "type": "event"
    },
    {
      "inputs": [
        {
          "internalType": "uint256",
          "name": "",
          "type": "uint256"
        }
      ],
      "name": "listings",
      "outputs": [
        {
          "internalType": "uint256",
          "name": "id",
          "type": "uint256"
        },
        {
          "internalType": "address",
          "name": "seller",
          "type": "address"
        },
        {
          "internalType": "string",
          "name": "title",
          "type": "string"
        },
        {
          "internalType": "string",
          "name": "description",
          "type": "string"
        },
        {
          "internalType": "uint256",
          "name": "price",
          "type": "uint256"
        },
        {
          "internalType": "bool",
          "name": "sold",
          "type": "bool"
        }
      ],
      "stateMutability": "view",
      "type": "function"
    },
    {
      "inputs": [],
      "name": "nextId",
      "outputs": [
        {
          "internalType": "uint256",
          "name": "",
          "type": "uint256"
        }
      ],
      "stateMutability": "view",
      "type": "function"
    },
    {
      "inputs": [
        {
          "internalType": "string",
          "name": "title",
          "type": "string"
        },
        {
          "internalType": "string",
          "name": "description",
          "type": "string"
        },
        {
          "internalType": "uint256",
          "name": "price",
          "type": "uint256"
        }
      ],
      "name": "createListing",
      "outputs": [],
      "stateMutability": "nonpayable",
      "type": "function"
    },
    {
      "inputs": [
        {
          "internalType": "uint256",
          "name": "id",
          "type": "uint256"
        }
      ],
      "name": "markSold",
      "outputs": [],
      "stateMutability": "nonpayable",
      "type": "function"
    },
    {
      "inputs": [
        {
          "internalType": "uint256",
          "name": "id",
          "type": "uint256"
        }
      ],
      "name": "getListing",
      "outputs": [
        {
          "internalType": "uint256",
          "name": "",
          "type": "uint256"
        },
        {
          "internalType": "address",
          "name": "",
          "type": "address"
        },
        {
          "internalType": "string",
          "name": "",
          "type": "string"
        },
        {
          "internalType": "string",
          "name": "",
          "type": "string"
        },
        {
          "internalType": "uint256",
          "name": "",
          "type": "uint256"
        },
        {
          "internalType": "bool",
          "name": "",
          "type": "bool"
        }
      ],
      "stateMutability": "view",
      "type": "function"
    }
  ],
  "bytecode": "0x608060405234801561000f575f80fd5b506109038061001d5f395ff3fe608060405234801561000f575f80fd5b5060043610610055575f3560e01c8063107a274a146100595780634652c3e21461008757806361b8ce8c1461009c578063de74e57b146100b2578063fed0abc8146100c5575b5f80fd5b61006c6100673660046105f0565b6100d8565b60405161007e9695949392919061064a565b60405180910390f35b61009a6100953660046106e5565b61024d565b005b6100a45f5481565b60405190815260200161007e565b61006c6100c03660046105f0565b6103c4565b61009a6100d33660046105f0565b610513565b5f8181526001602081905260408220805491810154600482015460058301546002840180548796606096879689968796929593946001600160a01b039092169392600387019260ff90911690849061012f90610753565b80601f016020809104026020016040519081016040528092919081815260200182805461015b90610753565b80156101a65780601f1061017d576101008083540402835291602001916101a6565b820191905f5260205f20905b81548152906001019060200180831161018957829003601f168201915b505050505093508280546101b990610753565b80601f01602080910402602001604051908101604052809291908181526020018280546101e590610753565b80156102305780601f1061020757610100808354040283529160200191610230565b820191905f5260205f20905b81548152906001019060200180831161021357829003601f168201915b505050505092509650965096509650965096505091939550919395565b6040518060c001604052805f548152602001336001600160a01b0316815260200186868080601f0160208091040260200160405190810160405280939291908181526020018383808284375f92019190915250505090825250604080516020601f8701819004810282018101909252858152918101919086908690819084018382808284375f9201829052509385525050506020808301859052604092830182905281548252600180825291839020845181559084015191810180546001600160a01b0319166001600160a01b039093169290921790915590820151600282019061033890826107ed565b506060820151600382019061034d90826107ed565b506080820151600482015560a0909101516005909101805460ff19169115159190911790555f546040518281523391907f9adf89188ff96bbe0e772b6a9345d935a240c2bd656be8db63db0d091e92cb9d9060200160405180910390a35f805490806103b8836108a9565b91905055505050505050565b600160208190525f91825260409091208054918101546002820180546001600160a01b0390921692916103f690610753565b80601f016020809104026020016040519081016040528092919081815260200182805461042290610753565b801561046d5780601f106104445761010080835404028352916020019161046d565b820191905f5260205f20905b81548152906001019060200180831161045057829003601f168201915b50505050509080600301805461048290610753565b80601f01602080910402602001604051908101604052809291908181526020018280546104ae90610753565b80156104f95780601f106104d0576101008083540402835291602001916104f9565b820191905f5260205f20905b8154815290600101906020018083116104dc57829003601f168201915b50505050600483015460059093015491929160ff16905086565b5f818152600160205260409020600581015460ff16156105695760405162461bcd60e51b815260206004820152600c60248201526b105b1c9958591e481cdbdb1960a21b60448201526064015b60405180910390fd5b60018101546001600160a01b031633146105b35760405162461bcd60e51b815260206004820152600b60248201526a27b7363c9039b2b63632b960a91b6044820152606401610560565b60058101805460ff1916600117905560405182907fcbf1f80c1f7d73a0c2e1c15f56b91db2ee3d06970d335711ce2e7c09af5f90de905f90a25050565b5f60208284031215610600575f80fd5b5035919050565b5f81518084525f5b8181101561062b5760208185018101518683018201520161060f565b505f602082860101526020601f19601f83011685010191505092915050565b8681526001600160a01b038616602082015260c0604082018190525f9061067390830187610607565b82810360608401526106858187610607565b6080840195909552505090151560a090910152949350505050565b5f8083601f8401126106b0575f80fd5b50813567ffffffffffffffff8111156106c7575f80fd5b6020830191508360208285010111156106de575f80fd5b9250929050565b5f805f805f606086880312156106f9575f80fd5b853567ffffffffffffffff80821115610710575f80fd5b61071c89838a016106a0565b90975095506020880135915080821115610734575f80fd5b50610741888289016106a0565b96999598509660400135949350505050565b600181811c9082168061076757607f821691505b60208210810361078557634e487b7160e01b5f52602260045260245ffd5b50919050565b634e487b7160e01b5f52604160045260245ffd5b601f8211156107e8575f81815260208120601f850160051c810160208610156107c55750805b601f850160051c820191505b818110156107e4578281556001016107d1565b5050505b505050565b815167ffffffffffffffff8111156108075761080761078b565b61081b816108158454610753565b8461079f565b602080601f83116001811461084e575f84156108375750858301515b5f19600386901b1c1916600185901b1785556107e4565b5f85815260208120601f198616915b8281101561087c5788860151825594840194600190910190840161085d565b508582101561089957878501515f19600388901b60f8161c191681555b5050505050600190811b01905550565b5f600182016108c657634e487b7160e01b5f52601160045260245ffd5b506001019056fea26469706673582212200c240e2b89fa4af5f965dda8b414183b361bf4d4369da9a06da076eb479d382564736f6c63430008140033",
  "immutableReferences": {},
  "source": "// SPDX-License-Identifier: MIT\r\npragma solidity ^0.8.20;\r\n\r\ncontract Marketplace {\r\n    struct Listing {\r\n        uint256 id;\r\n        address seller;\r\n        string title;\r\n        string description;\r\n        uint256 price; // store price as integer (e.g., paise or smallest unit)\r\n        bool sold;\r\n    }\r\n\r\n    uint256 public nextId;\r\n    mapping(uint256 => Listing) public listings;\r\n\r\n    event ListingCreated(uint256 indexed id, address indexed seller, uint256 price);\r\n    event ListingMarkedSold(uint256 indexed id);\r\n\r\n    function createListing(string calldata title, string calldata description, uint256 price) external {\r\n        listings[nextId] = Listing(nextId, msg.sender, title, description, price, false);\r\n        emit ListingCreated(nextId, msg.sender, price);\r\n        nextId++;\r\n    }\r\n\r\n    // Seller marks sold after receiving off-chain payment\r\n    function markSold(uint256 id) external {\r\n        Listing storage l = listings[id];\r\n        require(!l.sold, \"Already sold\");\r\n        require(msg.sender == l.seller, \"Only seller\");\r\n        l.sold = true;\r\n        emit ListingMarkedSold(id);\r\n    }\r\n\r\n    function getListing(uint256 id) external view returns (\r\n        uint256, address, string memory, string memory, uint256, bool\r\n    ) {\r\n        Listing storage l = listings[id];\r\n        return (l.id, l.seller, l.title, l.description, l.price, l.sold);\r\n    }\r\n}\r\n",
  "sourcePath": "C:\\Users\\toshr\\OneDrive\\Desktop\\GreenChainAdvisory-main_V1(before deploy)\\GreenChainAdvisory-main\\contracts\\Marketplace.sol",
  "compiler": {
    "name": "solc",
    "version": "0.8.20+commit.a1b79de6.Emscripten.clang"
  },
  "schemaVersion": "3.4.16",
  "updatedAt": "2025-09-23T19:17:09.348Z",
  "devdoc": {
    "kind": "dev",
    "methods": {},
    "version": 1
  },
  "userdoc": {
    "kind": "user",
    "methods": {},
    "version": 1
  }
}